:100000000C94DF000C9407010C9407010C94070179
:100010000C9407010C9407010C9407010C94070140
:100020000C9407010C9407010C9407010C94070130
:100030000C9407010C9407010C9407010C94070120
:100040000C94D9070C9407010C9449080C942308CC
:100050000C9407010C9407010C9407010C94070100
:100060000C9407010C94070100407A10F35A00A089
:10007000724E18090010A5D4E80000E87648170071
:1000800000E40B54020000CA9A3B000000E1F505B1
:10009000000080969800000040420F000000A086FB
:1000A00001000000102700000000E803000000002D
:1000B0006400000000000A000000000001000000D1
:1000C00000002C76D888DC674F0823DFC1DFAE59EB
:1000D000E1B1B796E5E3E453C63AE651997696E87E
:1000E000E6C28426EB898C9B62ED407C6FFCEFBC02
:1000F0009C9F40F2BAA56FA5F490055A2AF75C932D
:100100006B6CF9676DC11BFCE0E40D47FEF520E662
:10011000B500D0ED902E0300943577050080841E45
:10012000080000204E0A000000C80C333333330FA0
:10013000986E12831141EF8D2114893BE65516CF3D
:10014000FEE6DB18D1844B381BF77C1D901DA4BB49
:10015000E424203284725E228100C9F124ECA1E5FE
:100160003D2700000000240027002A0000000000B6
:10017000250028002B0000000008000201000003F9
:100180000407000000000000000000000000230041
:1001900026002900040404040404040402020202E8
:1001A000020203030303030301020408102040803A
:1001B0000102040810200102040810207B08112409
:1001C0001FBECFEFD8E0DEBFCDBF22E0A2EFB1E08F
:1001D00001C01D92A73CB207E1F711E0A0E0B1E039
:1001E000EAE7F4E202C005900D92A23FB107D9F709
:1001F00010E0CFEDD0E004C02197FE010E94431033
:10020000CE3DD107C9F70E94E5080C943B120C942F
:100210000000CF92DF92EF92FF92CF93DF93B091E5
:10022000B702A0E08111AB2F8091B80290E0880F57
:10023000991FAC0146575E4FC090BD02D090BE02E0
:10024000E090BF02F090C00230E020E0FA01C591DA
:10025000D491E881B90190E080E0EB23EA130AC071
:100260002F5F3F4F6C157D058E059F0578F36FEF6F
:100270007FEFCB01DF91CF91FF90EF90DF90CF9098
:10028000089590E0FC01EA58FE4F2491FC01E855E6
:10029000FE4F3491FC01EC56FE4FE491EE23C9F081
:1002A000222339F0233001F1A8F4213019F1223052
:1002B00029F1F0E0EE0FFF1FE459FE4FA591B49134
:1002C0008FB7F894EC91611126C030953E233C9392
:1002D0008FBF08952730A9F02830C9F0243049F79E
:1002E000809180008F7D03C0809180008F77809304
:1002F0008000DFCF84B58F7784BDDBCF84B58F7D61
:10030000FBCF8091B0008F778093B000D2CF8091E7
:10031000B0008F7DF9CF3E2BDACFCF93DF9390E003
:10032000FC01E855FE4F24918C569E4FFC018491B0
:100330008823D1F090E0880F991FFC01EE59FE4F01
:10034000A591B491FC01E459FE4FC591D49162305E
:1003500071F49FB7F8943C91822F809583238C93FE
:10036000E8812E2B28839FBFDF91CF9108958FB70F
:10037000F894EC912E2B2C938FBFF6CF3FB7F894C7
:100380008091F3019091F401A091F501B091F601F3
:1003900026B5A89B05C02F3F19F00196A11DB11DE0
:1003A0003FBFBA2FA92F982F8827BC01CD01620F1C
:1003B000711D811D911D42E0660F771F881F991FD7
:1003C0004A95D1F708958F929F92AF92BF92CF92A4
:1003D000DF92EF92FF924B015C010E94BE016B0124
:1003E0007C010E94BE016C197D098E099F09683E3F
:1003F000734081059105A8F321E0821A9108A108B4
:10040000B10888EEC80E83E0D81EE11CF11C8114EF
:100410009104A104B10429F7FF90EF90DF90CF90F1
:10042000BF90AF909F908F900895CF92DF92EF9200
:10043000FF920F931F93CF93DF93CDB7DEB7C054D6
:10044000D1400FB6F894DEBF0FBECDBF2FB7F894E2
:100450008091F7019091F801A091F901B091FA0112
:100460002FBF4091B9025091BA026091BB027091C6
:10047000BC028C019D01041B150B260B370BB90127
:10048000A801403D57406105710590F48091C1027B
:10049000C05CDE4F0FB6F894DEBF0FBECDBFDF915C
:1004A000CF911F910F91FF90EF90DF90CF90089523
:1004B0008093B9029093BA02A093BB02B093BC029E
:1004C0001092B4021092B3021092B2021092B102D2
:1004D0001092B00262E08091B5020E948D0161E04D
:1004E00070E080E090E00E94E30161E08091B5025D
:1004F0000E948D0160E08091B5020E9441018091CF
:10050000B6028551823020F58BE291E10197F1F737
:1005100062E08091B5020E948D018091C20290E05C
:100520008230910538F0880F991F880F991F059721
:100530000197F1F7F89480E00E9409016F3F7F4F27
:100540008F4F9F4F61F41092C102789480E0A0CF4A
:1005500064E170E080E090E00E94E301D9CF81E0A7
:100560000E9409016F3F7F4F8F4F9F4F61F38E01B4
:100570000F5F1F4F6E018FEBC81A8EEFD80A7801FC
:1005800080E00E940901F701608371838283938375
:1005900081E00E940901F701648375838683978354
:1005A000F8E0EF0EF11CEC14FD0451F7789430E004
:1005B00020E0F801C080D180E280F3804481558141
:1005C00066817781FFEFCF16DF06EF06FF0631F079
:1005D0004F3F8FEF58076807780719F41092C10250
:1005E000B5CFF90183E0F595E7958A95E1F7E055F8
:1005F000FD4F8081880FC416D506E606F70610F178
:1006000080832F5F3F4F085F1F4F2832310589F6E7
:100610004091B4022091B0028091B102280F33279B
:10062000331F8091B202280F311D8091B302820FD7
:10063000932F911D99274817190681F681E0809321
:10064000C10226CF8160DCCFAF92BF92CF92DF9202
:10065000EF92FF920F931F93CF93DF936C017B0177
:100660008B01040F151FEB015E01AE18BF08C01708
:10067000D10759F06991D601ED91FC910190F0817B
:10068000E02DC6010995892B79F7C501DF91CF913E
:100690001F910F91FF90EF90DF90CF90BF90AF90A0
:1006A0000895FC01538D448D252F30E0842F90E078
:1006B000821B930B541710F0CF960895019708955D
:1006C000FC01918D828D981761F0A28DAE0FBF2F26
:1006D000B11D5D968C91928D9F5F9F73928F90E07C
:1006E00008958FEF9FEF0895FC01918D828D9817EB
:1006F00031F0828DE80FF11D858D90E008958FEF28
:100700009FEF0895FC01918D228D892F90E0805CF0
:100710009F4F821B91098F73992708958BEF91E06A
:100720000E94820321E0892B09F420E0822F0895A2
:1007300080E090E0892B29F00E948E0381110C94B7
:1007400000000895FC01A48DA80FB92FB11DA35A74
:10075000BF4F2C91848D90E001968F739927848FE1
:10076000A689B7892C93A089B1898C918370806404
:100770008C93938D848D981306C00288F389E02DA5
:1007800080818F7D80830895EF92FF920F931F9356
:10079000CF93DF93EC0181E0888F9B8D8C8D981334
:1007A0001AC0E889F989808185FF15C09FB7F89440
:1007B000EE89FF896083E889F9898081837080648C
:1007C00080839FBF81E090E0DF91CF911F910F91D7
:1007D000FF90EF900895F62E0B8D10E00F5F1F4FE6
:1007E0000F731127E02E8C8D8E110CC00FB607FCF5
:1007F000FACFE889F989808185FFF5CFCE010E9483
:10080000A203F1CFEB8DEC0FFD2FF11DE35AFF4F4B
:10081000F0829FB7F8940B8FEA89FB898081806210
:10082000CFCFCF93DF93EC01888D8823B9F0AA89CD
:10083000BB89E889F9898C9185FD03C0808186FD9B
:100840000DC00FB607FCF7CF8C9185FFF2CF8081EA
:1008500085FFEDCFCE010E94A203E9CFDF91CF91BA
:100860000895089590E080E00895FB010190002034
:10087000E9F73197AF01461B570BDC01ED91FC9175
:100880000280F381E02D09948F929F92AF92BF92E4
:100890000F931F93CF93DF93CDB7DEB7A1970FB61A
:1008A000F894DEBF0FBECDBF19A2423008F44AE073
:1008B0008E010F5D1F4F842E912CB12CA12CA50110
:1008C00094010E942110E62FB901CA01EA3004F513
:1008D000E05DD801EE938D01232B242B252B79F796
:1008E00090E080E0109729F0BD0188E992E00E9435
:1008F0003504A1960FB6F894DEBF0FBECDBFDF91D1
:10090000CF911F910F91BF90AF909F908F900895BE
:10091000E95CDFCFCF93DF93FC0144815581608197
:1009200071818BEF91E00E942403EC0164E271E09D
:100930008BEF91E00E9435048C0F9D1FDF91CF91CA
:100940000895CF93DF93BC018BEF91E00E943504B3
:10095000EC0164E271E08BEF91E00E9435048C0FB2
:100960009D1FDF91CF910895CF93DF93EC0160E05D
:100970008E810E94410161E08E810E94410160E010
:100980008E810E9441018BE891E00197F1F7DF91A0
:10099000CF910895CF92DF92EF92FF920F931F9322
:1009A000CF93DF936C017C0187E0E80EF11CD0E06F
:1009B000C0E0062F10E0B8010C2E02C075956795B7
:1009C0000A94E2F76170F70181917F010E94410171
:1009D0002196C430D10579F7C601DF91CF911F91DF
:1009E0000F91FF90EF90DF90CF900C94B404CF92D2
:1009F000DF92EF92FF920F931F93CF93DF93EC015F
:100A0000F62E642F8C810E9441018D818F3F19F059
:100A100060E00E9441010F2D10E08F8584FF25C00A
:100A20006E0187E0C80ED11CF12CE12CB8010E2C10
:100A300002C0759567950A94E2F76170F60181919D
:100A40006F010E944101FFEFEF1AFF0A88E0E816EC
:100A5000F10461F7CE01DF91CF911F910F91FF90CB
:100A6000EF90DF90CF900C94B404B80184E07595BA
:100A700067958A95E1F7CE010E94CA046F2DCE01D9
:100A8000DF91CF911F910F91FF90EF90DF90CF906A
:100A90000C94CA0440E0682F88E992E00C94F704B3
:100AA00081E00E944A058BE39FE10197F1F70895E9
:100AB000CF93DF93823029F49091A70298609093AE
:100AC000A7028093AB021092AC0280E48093AD0247
:100AD00080E18093AE0280E58093AF0261E0809177
:100AE0009C020E948D0180919D028F3F19F061E070
:100AF0000E948D0161E080919E020E948D01C8E9F3
:100B0000D2E09E01285932408091A70284FD0BC09B
:100B100084E090E021962817390744F461E08E8143
:100B20000E948D01EECF88E090E0F4CF8BE39DE052
:100B30000197F1F760E080919C020E94410160E022
:100B400080919E020E94410180919D028F3F19F089
:100B500060E00E9441018091A70284FD34C063E0FF
:100B600088E992E00E94CA04CBE4D6E4CE01019762
:100B7000F1F763E088E992E00E94CA042197F1F757
:100B800063E088E992E00E94CA0483E592E001975D
:100B9000F1F762E088E992E00E94CA048091A7021E
:100BA00080620E944A0584E08093A8028CE00E9443
:100BB0004A050E94500582E08093A90286E0DF91F9
:100BC000CF910C944A0580620E944A058BE496E41A
:100BD0000197F1F78091A70280620E944A0583E5A0
:100BE00092E00197F1F78091A70280620E944A0586
:100BF000D5CF9091AB02891710F08FEF890FE82FB6
:100C0000F0E0E856FD4F848980680C944A0541E085
:100C10000E94F70481E090E008954F925F926F92F6
:100C20007F928F929F92AF92BF92CF92DF92EF927C
:100C3000FF920F931F93CF936B017C01742EAC0135
:100C40009B010E941C1067E271E0811126C04601E1
:100C50005701E894B7F82FEF3FEF4FE75FE7C50183
:100C6000B4010E941C1081110CC02FEF3FEF4FE721
:100C70005FE7C501B4010E94AE0D6BE271E018168A
:100C800064F02FEF3FEF4FE75FE4C701B6010E942A
:100C900017101816ACF46FE271E088E992E0CF917A
:100CA0001F910F91FF90EF90DF90CF90BF90AF908A
:100CB0009F908F907F906F905F904F900C94350431
:100CC0002FEF3FEF4FE75FECC701B6010E94AE0D7B
:100CD00087FDE1CF20E030E0A901C701B6010E9405
:100CE000AE0D10E000E087FF0CC041E06DE288E946
:100CF00092E00E94F704F7FAF094F7F8F09401E01C
:100D000010E0C0E060E070E080E09FE37C1641F01E
:100D100020E030E040E251E40E94760FCF5FF6CF52
:100D2000A70196010E940A0F4B015C010E94E80F87
:100D30002B013C014AE00E944404080F191FCC23F8
:100D4000C9F1C301B2010E94B30D9B01AC01C50101
:100D5000B4010E94090F4B015C0141E06EE288E999
:100D600092E00E94F7040F5F1F4FC15018F120E07E
:100D700030E040E251E4C501B4010E94140E2B01A1
:100D80003C010E94E80F4B01B12CA12C4AE0C501A7
:100D9000B4010E944404080F191FC501B4010E9448
:100DA000B30D9B01AC01C301B2010E94090F4B01BD
:100DB0005C01DBCFC801CF911F910F91FF90EF90A5
:100DC000DF90CF90BF90AF909F908F907F906F906B
:100DD0005F904F9008950F931F93CF93DF93EC0193
:100DE00088819981009759F02A813B81261737071E
:100DF00030F081E0DF91CF911F910F9108958B0129
:100E00006F5F7F4F0E946E11009759F0998388831E
:100E10001B830A832C813D81232B59F7FC0110820F
:100E2000E8CF80E0E7CFCF93DF93EC018881998111
:100E3000009711F00E94E510198218821D821C8211
:100E40001B821A82DF91CF910895EF92FF920F9348
:100E50001F93CF93DF93EC01FB01E080F180E1145D
:100E6000F10411F10481158101151105A9F08C819E
:100E70009D81080F191FB801CE010E94EB0688233F
:100E800099F0288139818C819D81B701820F931F50
:100E90000E9434121D830C83CE01DF91CF911F91EC
:100EA0000F91FF90EF900895CE010E941307F4CFA9
:100EB000EF92FF920F931F93CF93DF93EC017B018F
:100EC0008A01BA010E94EB0681110BC0CE010E947B
:100ED0001307CE01DF91CF911F910F91FF90EF90FB
:100EE00008951D830C83B701888199810E94341273
:100EF000F0CFEF92FF920F931F93CF93DF93CDB775
:100F0000DEB7A1970FB6F894DEBF0FBECDBF7C0150
:100F1000CB01BA01F701118210821382128215826D
:100F200014828E010F5F1F4F22E044E00E94590B94
:100F30000097C9F0FC0101900020E9F73197AF015B
:100F4000481B590BBC01C7010E945807A1960FB658
:100F5000F894DEBF0FBECDBFDF91CF911F910F91EF
:100F6000FF90EF900895C7010E941307EFCFFB0198
:100F7000DC0111961C921E9213961C921E921297DF
:100F800015961C921E9214978617970749F0608158
:100F900071816115710521F0448155810C945807C8
:100FA0000895FC0180819181009711F00C94E51067
:100FB00008951F920F920FB60F9211242F933F9313
:100FC0008F939F93AF93BF938091F7019091F80116
:100FD000A091F901B091FA013091F20123E0230FC1
:100FE0002D3758F50196A11DB11D2093F201809374
:100FF000F7019093F801A093F901B093FA01809161
:10100000F3019091F401A091F501B091F6010196E0
:10101000A11DB11D8093F3019093F401A093F501FC
:10102000B093F601BF91AF919F918F913F912F9116
:101030000F900FBE0F901F90189526E8230F029671
:10104000A11DB11DD2CF1F920F920FB60F92112486
:101050002F933F934F935F936F937F938F939F93C0
:10106000AF93BF93EF93FF938BEF91E00E94A203A6
:10107000FF91EF91BF91AF919F918F917F916F9170
:101080005F914F913F912F910F900FBE0F901F9046
:1010900018951F920F920FB60F9211242F938F93D2
:1010A0009F93EF93FF93E0910B02F0910C028081EC
:1010B000E0911102F091120282FD1BC0908180919B
:1010C00014028F5F8F7320911502821741F0E09117
:1010D0001402F0E0E550FE4F958F80931402FF91CB
:1010E000EF919F918F912F910F900FBE0F901F90B6
:1010F00018958081F4CFEBEFF1E01382128288EE35
:1011000093E0A0E0B0E084839583A683B7838AE070
:1011100091E09183808385EC90E09587848784ECCF
:1011200090E09787868780EC90E0918B808B81ECB4
:1011300090E0938B828B82EC90E0958B848B86EC95
:1011400090E0978B868B118E128E138E148EA0EBEF
:10115000B2E08DE015968C9315978BE016968C93E4
:101160001697E5EBF1E0E4911796EC931797E1EA17
:10117000F1E0E4911896EC93189740E85EE360E0A4
:1011800070E01D964D935D936D937C935097E8E9C5
:10119000F2E0138212828CE191E0918380838AE0F5
:1011A000848389E0858388E0868385E0878384E083
:1011B000808783E0818782E0828713861486158684
:1011C0001686178681E00C945805CF93DF93CDB730
:1011D000DEB768970FB6F894DEBF0FBECDBF789428
:1011E00084B5826084BD84B5816084BD85B582602C
:1011F00085BD85B5816085BD80916E0081608093DD
:101200006E00109281008091810082608093810045
:101210008091810081608093810080918000816055
:10122000809380008091B10084608093B1008091B0
:10123000B00081608093B00080917A0084608093D8
:101240007A0080917A00826080937A0080917A009F
:10125000816080937A0080917A00806880937A0020
:101260001092C100E0910B02F0910C0282E08083A9
:10127000E0910702F09108021082E0910902F091DA
:101280000A028FEC808310921302E0910F02F0911A
:10129000100286E08083E0910D02F0910E028081C1
:1012A00080618083E0910D02F0910E028081886060
:1012B0008083E0910D02F0910E028081806880832E
:1012C000E0910D02F0910E0280818F7D808382E09B
:1012D0000E94580580E00E94F90563E371E088E907
:1012E00092E00E94350481E00E94F90560E471E01B
:1012F00088E992E00E94350468EE73E080E090E0B7
:101300000E94E3010E94500580E00E94F9056DE40F
:1013100071E088E992E00E94350481E00E94F905BD
:101320006CE571E088E992E00E94350460ED77E0B9
:1013300080E090E00E94E3010E94500561E08BE0B4
:101340000E948D0161E08CE00E948D0162E080913D
:10135000B5020E948D012FB7F8948091F70190910A
:10136000F801A091F901B091FA012FBF805D97407B
:10137000A109B1098093B9029093BA02A093BB026C
:10138000B093BC0287E38093C20200E010E00E94A9
:101390001502882341F08091B6028C3009F462C0B6
:1013A00048F48B3001F1C12CD12C90ECE92E9FE751
:1013B000F92E43C085518230B0F7B090B2026B2D48
:1013C00070E0762F662766277F778091B302682BBF
:1013D00090E080E00E94B30D2DEC3CEC4CEC5DE322
:1013E0000E94140E5BC06091B20270E090E080E059
:1013F0000E94B30D4B015C01F090B302F7FE0AC0EE
:10140000AC019B0160E070E080E89FEB0E94090F57
:101410004B015C016F2D6F7070E090E080E00E94E6
:10142000B50D2DEC3CEC4CEC5DE30E94140EA501D7
:1014300094010E940A0F6B017C010E94150288230F
:1014400051F08091B6028B3030F08D3080F18551B3
:10145000823008F40EC1812C912C80ECA82E8FE7ED
:10146000B82E43C0B090B2026B2D70E090E080E0E7
:101470000E94B30D6B017C016091B3026F7070E04C
:1014800090E080E00E94B50D2DEC3CEC4CEC5DE36F
:101490000E94140EA70196010E940A0F6B017C01A5
:1014A000B7FECBCFF7FAF094F7F8F094C6CF60917F
:1014B000B10270E090E080E00E94B50D2DEC3CECB4
:1014C0004CEC5DE30E94140E4B015C016091B00294
:1014D00070E090E080E00E94B50D9B01AC01C50179
:1014E000B4010E940A0F4B015C010E94500580E08C
:1014F0000E94F90568E671E088E992E00E943504EF
:1015000042E0C701B6010E940D0681E00E94F90584
:101510006FE671E088E992E00E94350442E0C5017F
:10152000B4010E940D0620E030E048EC51E4C70110
:10153000B6010E94090FAB01BC01CE0101960E94C9
:10154000790718861F821A8619861C861B8641E237
:1015500050E066E771E0CE0107960E945807BE0191
:101560006F5F7F4FCE0107960E942507BC01CE0119
:1015700043960E94B707CE0107960E94D107CE017D
:1015800001960E94D10720E030E040E252E4C5011C
:10159000B4010E94090FAB01BC01CE0101960E946B
:1015A000790718861F821A8619861C861B864DE1CC
:1015B00050E068E971E0CE0107960E945807BE012D
:1015C0006F5F7F4FCE0107960E942507BC01CE01B9
:1015D0000D960E94B707CE0107960E94D107CE0153
:1015E00001960E94D107CE0143960E948A04CE0143
:1015F0000D960E948A0420E030E048EC51E4C701D7
:10160000B6010E94171087FD46C061E08BE00E9482
:10161000410186EB91E00E94A10420E030E040E22D
:1016200052E4C501B4010E94AE0D1816DCF161E070
:101630008CE00E94410184ED91E00E94A10460EDE4
:1016400077E080E090E00E94E301CE010D960E94D9
:10165000D107CE0143960E94D1070115110509F467
:1016600096CE0E948E03882309F491CE0E9400003A
:101670008ECE6091B0027091B102762767277627EF
:1016800090E080E00E94B30D2DEC3CEC4CEC5DE36F
:101690000E94140E28CF60E08BE00E94410186EC8E
:1016A00091E0B9CF60E08CE00E94410184EE91E0CE
:1016B000C4CFEF920F931F93CF93DF93E80134E0F1
:1016C00047FD34E1042E000C550B57FF03C0519524
:1016D00041955109E32E022F242FAE010E94770B72
:1016E000CE01DF91CF911F910F91EF900895A9E066
:1016F000B0E0EDE7FBE00C94D80E6A01F22EB02EBC
:10170000102FFBE3AF2EA01608F41BE31F5F012F81
:1017100027E0AE014F5F5F4F0E94D60CBC0189816C
:10172000982F9970913009F43FC09BE2E1FC04C00E
:101730009E2D9170E0FC3AC05E2D5071E82FE8704C
:1017400083FF46C084E0911101C083E0EF2DE81BC8
:101750008F1508F0E0E0D6018E2F20E2552351F1DD
:10176000992329F0D6019C93C60101966C0196013C
:101770002D5F3F4FE2FE24C08EE4D6018C9391E4AE
:1017800011969C93119712968C93D9018E2F90E20B
:1017900081111BC0E20FF32FF11D10828EEF9FEF1E
:1017A0002996ECE00C94F40E9DE2C6CF90E2C4CFF3
:1017B0002D9381508111FCCFCE0ED11CE0E0D0CF13
:1017C0008EE6D6018C9391E6DBCF9D938150E0CFDE
:1017D000482F447082FF3DC084E0911101C083E036
:1017E0008F1510F4EF2DE81BD6018E2F20E2552324
:1017F00009F1992329F0D6019C93C60101966C0149
:1018000096012D5F3F4FE2FE1BC089E4D6018C9309
:101810008EE411968C93119786E412968C93D901DD
:101820008E2F90E2882309F4B5CF9D938150FACF93
:101830002D9381508111FCCFCE0ED11CE0E0D9CF89
:1018400089E6D6018C938EE611968C93119786E6E5
:10185000E4CF9B0177FF02C030E020E0A1E0B0E0E0
:10186000911102C0B0E0A0E0F9013196AE0FBF1FA8
:101870008B2C912CBB2009F461C05401EFEFAE1A00
:10188000BE0AAA0DBB1DFA161B0619F014F04F2D47
:101890004A1B511188C0E3FC59C07601A42FB0E265
:1018A000A1114FC0C40ED11C992309F45BC040E0C4
:1018B000D6011196F60190836D01552309F448C0B5
:1018C000012F060F9A81582F507184FF03C0913366
:1018D00009F4015010160CF047C0093008F008E078
:1018E000EEE2FE2E5B01A01AB1088501919481946D
:1018F00091082F3F320729F4D601FC92F601319668
:101900006F016217730794F1021713077CF5DB016F
:10191000A21BB30BAA24A394B12CAC0EBD1EAA0D1E
:10192000BB1D11968C9121503109D60111962815B5
:101930003905F4F0F60180836D01DBCFB12CA12CC9
:10194000A0CFF701B1937F01A150AACF9111B0CFE1
:10195000D601942F50E302C05D9391509111FCCFBA
:10196000C40ED11C40E0ACCF01E0BACF80E3DBCFA6
:101970006217730731F4963388F4953311F45523C5
:1019800069F0F6018083FD01842F90E2811108C087
:10199000A40FB11D1C9290E080E002CF81E3F1CF53
:1019A00091938150F3CF911183CF8ACF283008F0E3
:1019B00027E03327DA01990F311D87FD91600096EA
:1019C0006105710539F432602E5F3D9330E32A954D
:1019D000E1F708959F3F30F080387105610509F007
:1019E0003C5F3C5F3D93913008F08068911DDF9330
:1019F000CF931F930F93FF92EF92192F987F969595
:101A0000E92F96959695E90FFF27EE53FF4F9927FB
:101A10003327EE24FF24A701E701059008940794DB
:101A200028F4360FE71EF81E491F511D660F771F59
:101A3000881F991F0694A1F70590079428F4E70ED4
:101A4000F81E491F561FC11D770F881F991F661F5B
:101A50000694A1F70590079428F4F80E491F561F25
:101A6000C71FD11D880F991F661F771F0694A1F706
:101A70000590079420F4490F561FC71FD81F990FD0
:101A8000661F771F881F0694A9F784911095177019
:101A900041F0D695C79557954795F794E7941A95D1
:101AA000C1F7E8E6F0E068941590159135916591DD
:101AB000959105907FE27395E118F10A430B560B5F
:101AC000C90BD009C0F7E10CF11E431F561FC91FF7
:101AD000D01D7EF4703311F48A95E6CFE89401505E
:101AE00030F0080F0AF40027021708F4202F23957E
:101AF000022F7A3328F079E37D932A95E9F710C015
:101B00007D932A9589F6069497956795379517954D
:101B10001794E118F10A430B560BC90BD00998F042
:101B200023957E9173957A3308F070E37C932013AC
:101B3000B8F77E9170617D9330F0839571E37D936A
:101B400070E32A95E1F71124EF90FF900F911F9118
:101B5000CF91DF91992787FD909508950E94F00D10
:101B600008F481E00895E89409C097FB3EF490954D
:101B70008095709561957F4F8F4F9F4F9923A9F066
:101B8000F92F96E9BB279395F695879577956795F5
:101B9000B795F111F8CFFAF4BB0F11F460FF1BC039
:101BA0006F5F7F4F8F4F9F4F16C0882311F096E9CC
:101BB00011C0772321F09EE8872F762F05C066237A
:101BC00071F096E8862F70E060E02AF09A95660F33
:101BD000771F881FDAF7880F9695879597F90895EC
:101BE000990F0008550FAA0BE0E8FEEF161617062E
:101BF000E807F907C0F012161306E407F50798F096
:101C0000621B730B840B950B39F40A2661F0232BAE
:101C1000242B252B21F408950A2609F4A140A6952A
:101C20008FEF811D811D08950E94270E0C94980E40
:101C30000E948A0E38F00E94910E20F0952311F038
:101C40000C94810E0C94870E11240C94CC0E0E94DF
:101C5000A90E70F3959FC1F3950F50E0551F629F39
:101C6000F001729FBB27F00DB11D639FAA27F00DF5
:101C7000B11DAA1F649F6627B00DA11D661F829F1C
:101C80002227B00DA11D621F739FB00DA11D621F01
:101C9000839FA00D611D221F749F3327A00D611D1E
:101CA000231F849F600D211D822F762F6A2F112400
:101CB0009F5750409AF0F1F088234AF0EE0FFF1F33
:101CC000BB1F661F771F881F91505040A9F79E3F8A
:101CD000510580F00C94810E0C94CC0E5F3FE4F320
:101CE000983ED4F3869577956795B795F795E795E0
:101CF0009F5FC1F7FE2B880F911D9695879597F9E9
:101D0000089597F99F6780E870E060E008959FEF7D
:101D100080EC089500240A94161617061806090682
:101D2000089500240A941216130614060506089551
:101D3000092E0394000C11F4882352F0BB0F40F4D9
:101D4000BF2B11F460FF04C06F5F7F4F8F4F9F4F19
:101D5000089557FD9058440F551F59F05F3F71F09B
:101D60004795880F97FB991F61F09F3F79F0879502
:101D70000895121613061406551FF2CF4695F1DF8B
:101D800008C0161617061806991FF1CF869571051B
:101D9000610508940895E894BB2766277727CB014F
:101DA00097F908952F923F924F925F926F927F9290
:101DB0008F929F92AF92BF92CF92DF92EF92FF925B
:101DC0000F931F93CF93DF93CDB7DEB7CA1BDB0B07
:101DD0000FB6F894DEBF0FBECDBF09942A883988AC
:101DE00048885F846E847D848C849B84AA84B984B3
:101DF000C884DF80EE80FD800C811B81AA81B981BF
:101E0000CE0FD11D0FB6F894DEBF0FBECDBFED01D2
:101E100008955058BB27AA270E94210F0C94980EB2
:101E20000E948A0E38F00E94910E20F039F49F3FF4
:101E300019F426F40C94870E0EF4E095E7FB0C944D
:101E4000810EE92F0E94A90E58F3BA176207730793
:101E50008407950720F079F4A6F50C94CB0E0EF4C8
:101E6000E0950B2EBA2FA02D0B01B90190010C01AA
:101E7000CA01A0011124FF27591B99F0593F50F4C2
:101E8000503E68F11A16F040A22F232F342F44271A
:101E9000585FF3CF469537952795A795F040539512
:101EA000C9F77EF41F16BA0B620B730B840BBAF0E2
:101EB0009150A1F0FF0FBB1F661F771F881FC2F74D
:101EC0000EC0BA0F621F731F841F48F48795779561
:101ED0006795B795F7959E3F08F0B0CF9395880F1B
:101EE00008F09927EE0F9795879508950E948A0F1D
:101EF0000C94980E0E94910E58F00E948A0E40F0A9
:101F000029F45F3F29F00C94810E51110C94CC0EF2
:101F10000C94870E0E94A90E68F39923B1F3552300
:101F200091F3951B550BBB27AA27621773078407EC
:101F300038F09F5F5F4F220F331F441FAA1FA9F382
:101F400035D00E2E3AF0E0E832D091505040E69570
:101F5000001CCAF72BD0FE2F29D0660F771F881FD1
:101F6000BB1F261737074807AB07B0E809F0BB0BC4
:101F7000802DBF01FF2793585F4F3AF09E3F5105D8
:101F800078F00C94810E0C94CC0E5F3FE4F3983EF5
:101F9000D4F3869577956795B795F7959F5FC9F7C1
:101FA000880F911D9695879597F90895E1E0660F42
:101FB000771F881FBB1F621773078407BA0720F0BB
:101FC000621B730B840BBA0BEE1F88F7E095089524
:101FD0000E94B10E88F09F5798F0B92F9927B751FA
:101FE000B0F0E1F0660F771F881F991F1AF0BA95BD
:101FF000C9F714C0B13091F00E94CB0EB1E0089542
:102000000C94CB0E672F782F8827B85F39F0B93F33
:10201000CCF3869577956795B395D9F73EF490956F
:102020008095709561957F4F8F4F9F4F08950E94C7
:10203000F00D08F48FEF08950E94F00D880B990BB6
:102040000895A1E21A2EAA1BBB1BFD010DC0AA1FF9
:10205000BB1FEE1FFF1FA217B307E407F50720F011
:10206000A21BB30BE40BF50B661F771F881F991F8C
:102070001A9469F760957095809590959B01AC01D5
:10208000BD01CF010895EE0FFF1F0590F491E02DE3
:1020900009940F931F93CF93DF938230910510F42F
:1020A00082E090E0E091C502F091C60230E020E0CD
:1020B000B0E0A0E0309799F42115310509F44AC049
:1020C000281B390B24303105D8F58A819B81611595
:1020D000710589F1FB0193838283FE0111C0408168
:1020E00051810281138148175907E0F048175907B9
:1020F00099F4109761F012960C93129713961C9313
:102100003296CF01DF91CF911F910F9108950093E7
:10211000C5021093C602F4CF2115310551F04217C4
:10212000530738F0A901DB019A01BD01DF01F80175
:10213000C1CFEF01F9CF9093C6028093C502CDCFF6
:10214000FE01E20FF31F81939193225031093983ED
:102150002883D7CF2091C3023091C402232B41F4AE
:1021600020910201309103013093C4022093C302F5
:1021700020910001309101012115310541F42DB765
:102180003EB74091040150910501241B350BE091AD
:10219000C302F091C402E217F307A0F42E1B3F0B19
:1021A0002817390778F0AC014E5F5F4F24173507C9
:1021B00048F04E0F5F1F5093C4024093C3028193B7
:1021C00091939FCFF0E0E0E09CCFCF93DF93009717
:1021D000E9F0FC01329713821282A091C502B091FE
:1021E000C602ED0130E020E01097A1F4208131819A
:1021F000820F931F2091C3023091C4022817390720
:1022000009F061C0F093C402E093C302DF91CF9163
:102210000895EA01CE17DF07E8F54A815B819E0148
:1022200041155105B1F7E901FB83EA8349915991C1
:10223000C40FD51FEC17FD0761F4808191810296D0
:10224000840F951FE90199838883828193819B8301
:102250008A83F0E0E0E012968D919C9113970097AD
:10226000B9F52D913C911197CD010296820F931FE4
:102270002091C3023091C4022817390739F63097EC
:1022800051F51092C6021092C502B093C402A093F9
:10229000C302BCCFD383C28340815181840F951F79
:1022A000C817D90761F44E5F5F4F88819981480F45
:1022B000591F518340838A819B8193838283211597
:1022C000310509F0B0CFF093C602E093C5029ECF6E
:1022D000FD01DC01C0CF13821282D7CFB0E0A0E0B5
:1022E000E4E7F1E10C94D40E8C01009751F4CB019A
:1022F0000E9449108C01C801CDB7DEB7E0E10C9413
:10230000F00EFC01E60FF71F9C0122503109E21785
:10231000F30708F49DC0D901CD91DC911197C61740
:10232000D70798F0C530D10530F3CE010497861752
:10233000970708F3C61BD70B2297C193D1936D93D0
:102340007C93CF010E94E510D6CF5B01AC1ABD0A89
:102350004C018C0E9D1EA091C502B091C602512C5D
:10236000412CF12CE12C109731F58091C302909112
:10237000C4028815990509F05CC04616570608F096
:1023800058C08091000190910101009741F48DB7F0
:102390009EB74091040150910501841B950BE817ED
:1023A000F90708F055C0F093C402E093C302F901A5
:1023B00071836083A0CF8D919C91119712966C9040
:1023C000129713967C901397A815B90559F56C01CF
:1023D00042E0C40ED11CCA14DB0420F1AC014A193E
:1023E0005B09DA011296159780F06282738251833D
:1023F0004083D9016D937C93E114F10471F0D7010E
:102400001396FC93EE93129776CF22968C0F9D1F16
:10241000F90191838083F301EFCFF093C602E0933B
:10242000C50269CF4816590608F42C017D01D30175
:102430009ACFCB010E9449107C01009749F0AE0170
:10244000B8010E942B12C8010E94E510870153CFEA
:1024500010E000E050CFFB01DC0102C001900D92C2
:1024600041505040D8F70895FB01DC0101900D92D6
:0A2470000020E1F70895F894FFCF73
:10247A000000C702800000000000C40324035103C7
:10248A00110482036003740300000000070624039A
:10249A00320431040D0A006E616E00696E66006FC7
:1024AA00766600547269415247204C7464612E006A
:1024BA00426168696120426C616E636100417574B2
:1024CA006F6D6174697A6163696F6E0054656D70CE
:1024DA00202F2048756D640054656D703A200048BD
:1024EA00756D643A20004C61206469666572656E98
:1024FA006369612064652074656D706572617475C5
:10250A0072612065733A20004C61206469666572C5
:10251A00656E6369612064652068756D65646164D0
:10252A002065733A20004C6564203120656E63652E
:10253A006E6469646F004C65642031206170616764
:10254A0061646F004C6564203220656E63656E6459
:10255A0069646F004C656420322061706167616450
:02256A006F0000
:00000001FF
