:100000000C945D000C9485000C9485000C944703BF
:100010000C9447030C9447030C9485000C948500C2
:100020000C9485000C9485000C9485000C9485003C
:100030000C9485000C9485000C9485000C9485002C
:100040000C94A5020C9485000C9415030C94EF02FB
:100050000C9485000C9485000C9485000C9485000C
:100060000C9485000C94850000000008000201003B
:100070000003040700000000000000000000000072
:10008000250028002B0000000000240027002A0083
:10009000040404040404040402020202020203032E
:1000A0000303030301020408102040800102040836
:1000B00010200102040810209D0411241FBECFEF60
:1000C000D8E0DEBFCDBF13E0A0E0B1E0E4EBF9E0A3
:1000D00002C005900D92AC36B107D9F724E0ACE62A
:1000E000B3E001C01D92A431B207E1F710E0CDE505
:1000F000D0E004C02197FE010E94CA04CC35D1078C
:10010000C9F70E9451030C94D8040C94000090E0AD
:10011000FC01EC55FF4F249180579F4FFC018491C7
:10012000882399F090E0880F991FFC01EA57FF4F50
:10013000A591B491FC01E458FF4F859194918FB73C
:10014000F894EC91E22BEC938FBF089590E0FC01C2
:10015000E859FF4F2491FC01EC55FF4F3491FC010D
:10016000E057FF4FE491EE23C9F0222339F023300A
:1001700001F1A8F4213019F1223029F1F0E0EE0F5D
:10018000FF1FE458FF4FA591B4918FB7F894EC91FD
:10019000611126C030953E233C938FBF08952730D0
:1001A000A9F02830C9F0243049F7809180008F7D74
:1001B00003C0809180008F7780938000DFCF84B56B
:1001C0008F7784BDDBCF84B58F7DFBCF8091B0006E
:1001D0008F778093B000D2CF8091B0008F7DF9CF20
:1001E0003E2BDACF3FB7F89480917303909174035C
:1001F000A0917503B091760326B5A89B05C02F3F4B
:1002000019F00196A11DB11D3FBFBA2FA92F982F3C
:100210008827BC01CD01620F711D811D911D42E037
:10022000660F771F881F991F4A95D1F708958F92FF
:100230009F92AF92BF92CF92DF92EF92FF924B01CB
:100240005C010E94F2006B017C010E94F2006C19BB
:100250007D098E099F09683E734081059105A8F3C9
:1002600021E0821A9108A108B10888EEC80E83E047
:10027000D81EE11CF11C81149104A104B10429F7DA
:10028000FF90EF90DF90CF90BF90AF909F908F90B6
:100290000895AF92BF92CF92DF92EF92FF920F93A9
:1002A0001F93CF93DF936C017B018B01040F151F0C
:1002B000EB015E01AE18BF08C017D10759F0699174
:1002C000D601ED91FC910190F081E02DC6010995D8
:1002D000892B79F7C501DF91CF911F910F91FF9085
:1002E000EF90DF90CF90BF90AF900895FC01538DB9
:1002F000448D252F30E0842F90E0821B930B541700
:1003000010F0CF96089501970895FC01918D828D8C
:10031000981761F0A28DAE0FBF2FB11D5D968C9125
:10032000928D9F5F9F73928F90E008958FEF9FEF64
:100330000895FC01918D828D981731F0828DE80F20
:10034000F11D858D90E008958FEF9FEF0895FC01DA
:10035000918D228D892F90E0805C9F4F821B9109A7
:100360008F739927089587E793E00E94A70121E002
:10037000892B09F420E0822F089580E090E0892BFA
:1003800029F00E94B30181110C9400000895FC0132
:10039000A48DA80FB92FB11DA35ABF4F2C91848DE6
:1003A00090E001968F739927848FA689B7892C9343
:1003B000A089B1898C91837080648C93938D848D96
:1003C000981306C00288F389E02D80818F7D808399
:1003D0000895EF92FF920F931F93CF93DF93EC0159
:1003E00081E0888F9B8D8C8D98131AC0E889F989DC
:1003F000808185FF15C09FB7F894EE89FF896083DF
:10040000E889F98980818370806480839FBF81E05F
:1004100090E0DF91CF911F910F91FF90EF900895A1
:10042000F62E0B8D10E00F5F1F4F0F731127E02E7C
:100430008C8D8E110CC00FB607FCFACFE889F989B4
:10044000808185FFF5CFCE010E94C701F1CFEB8DF2
:10045000EC0FFD2FF11DE35AFF4FF0829FB7F89488
:100460000B8FEA89FB8980818062CFCFCF93DF93A6
:10047000EC01888D8823B9F0AA89BB89E889F989BC
:100480008C9185FD03C0808186FD0DC00FB607FCF1
:10049000F7CF8C9185FFF2CF808185FFEDCFCE0124
:1004A0000E94C701E9CFDF91CF910895CF93DF93E9
:1004B000FC0101900020E9F73197AF01481B590B6F
:1004C000BC0187E793E00E944901EC0142E050E063
:1004D00062E171E087E793E00E9449018C0F9D1F64
:1004E000DF91CF9108950F931F93CF93C82FCB0126
:1004F0008A010E94560261E08C2F0E94A60060EDE6
:1005000077E080E090E00E94170160E08C2F0E946D
:10051000A600C801CF911F910F910C945602CF9362
:10052000DF93EB0160E00E94A600CE01DF91CF9146
:100530000C945602CF93DF93EB0161E00E94A6007A
:10054000CE01DF91CF910C9456021F920F920FB6FD
:100550000F9211242F933F938F939F93AF93BF9349
:1005600080916F0390917003A0917103B091720319
:1005700030916E0323E0230F2D3758F50196A11D0E
:10058000B11D20936E0380936F0390937003A0932B
:100590007103B09372038091730390917403A091DF
:1005A0007503B09176030196A11DB11D809373036D
:1005B00090937403A0937503B0937603BF91AF91AA
:1005C0009F918F913F912F910F900FBE0F901F9091
:1005D000189526E8230F0296A11DB11DD2CF1F92B8
:1005E0000F920FB60F9211242F933F934F935F9367
:1005F0006F937F938F939F93AF93BF93EF93FF93EB
:1006000087E793E00E94C701FF91EF91BF91AF91FF
:100610009F918F917F916F915F914F913F912F911A
:100620000F900FBE0F901F9018951F920F920FB64C
:100630000F9211242F938F939F93EF93FF93E09149
:100640008703F09188038081E0918D03F0918E0300
:1006500082FD1BC09081809190038F5F8F732091EA
:100660009103821741F0E0919003F0E0E958FC4FCC
:10067000958F80939003FF91EF919F918F912F9190
:100680000F900FBE0F901F9018958081F4CF1F928E
:100690000F920FB60F9211240F900FBE0F901F9064
:1006A0001895789484B5826084BD84B5816084BDDA
:1006B00085B5826085BD85B5816085BD80916E0000
:1006C000816080936E001092810080918100826031
:1006D000809381008091810081608093810080916E
:1006E00080008160809380008091B100846080935D
:1006F000B1008091B00081608093B00080917A0059
:10070000846080937A0080917A00826080937A007E
:1007100080917A00816080937A0080917A0080686D
:1007200080937A001092C100E0918703F0918803D2
:1007300082E08083E0918303F09184031082E09152
:100740008503F09186038FEC808310928F03E091F4
:100750008B03F0918C0386E08083E0918903F09114
:100760008A03808180618083E0918903F0918A030C
:10077000808188608083E0918903F0918A03808181
:1007800080688083E0918903F0918A0380818F7D66
:1007900080838DE00E9487008CE00E9487008BE0C0
:1007A0000E94870088E00E9487008AE00E948700FC
:1007B00089E00E94870087E00E94870085E191E040
:1007C0000E94560268EC70E080E090E00E94170101
:1007D00080E291E00E94560268EC70E080E090E0D8
:1007E0000E94170189E391E00E94560260ED77E0D4
:1007F00080E090E00E94170184E491E00E9456029C
:10080000C0E0D0E087E793E00E94A701892B09F4BC
:100810004CC087E793E00E948501082E000C990BDD
:100820000E94D004863309F47BC0E4F4823309F4D7
:1008300067C04CF4803309F45EC0813309F456C0BC
:1008400086E593E077C0843309F463C047E752E05C
:1008500067E872E085330CF457C043EC52E062ED78
:1008600072E05BC0833699F184F48136C1F044F5BF
:10087000873331F780E293E00E94560260E087E020
:100880000E94A6008DE393E055C0853651F124F116
:100890008636B1F66FE072E08BE090E015C063E55C
:1008A00071E08DE090E00E949A02209709F4AACFAF
:1008B0000E94B301882309F4A5CF0E940000A2CFB3
:1008C0006BE771E08DE090E00E948F02EECF61EA6D
:1008D00071E08CE090E0E7CF69EC71E08CE090E0B3
:1008E000F3CF6FEE71E08BE090E0DDCF6DE272E070
:1008F00088E090E0D8CF6EE372E088E090E0E4CF4B
:100900004DE452E060E672E08AE090E00E947302FB
:10091000CCCF4BE952E06DEA72E089E090E0F6CF8F
:1009200085EE92E00E94560261E087E00E94A600F8
:1009300085E093E00E945602B8CFE7E7F3E0138228
:10094000128288EE93E0A0E0B0E084839583A683D2
:10095000B78384E091E09183808385EC90E0958774
:10096000848784EC90E09787868780EC90E0918B79
:10097000808B81EC90E0938B828B82EC90E0958B66
:10098000848B86EC90E0978B868B118E128E138E63
:10099000148E0895EE0FFF1F0590F491E02D099439
:1009A0009111089581548A5108F4805E855A089502
:0409B000F894FFCFE9
:1009B40000000000E901490176013602A701850122
:1009C40099010D0A004269656E76656E69646F006F
:1009D400496E696369616C697A616E646F20656CE4
:1009E4002073697374656D61004573706572652E5B
:1009F4002E2E2E0053697374656D612061637469D2
:100A0400766F00496C756D696E6163696F6E206401
:100A140065206C6120706C616E74612062616A6132
:100A240020656E63656E6469646100496C756D6907
:100A34006E6163696F6E206465206C6120706C6107
:100A44006E74612062616A612061706167616461D2
:100A540000496C756D696E6163696F6E2064652011
:100A64006C6120706C616E746120616C74612065CE
:100A74006E63656E6469646100496C756D696E616D
:100A840063696F6E206465206C6120706C616E74A4
:100A94006120616C74612061706167616461004907
:100AA4006C756D696E6163696F6E2064656C20702E
:100AB4006174696F20656E63656E64696461004981
:100AC4006C756D696E6163696F6E2064656C20700E
:100AD4006174696F206170616761646100416C6178
:100AE400726D6120656E63656E6469646100416C5A
:100AF40061726D61206170616761646100436F635D
:100B040068657261206170657274757261646100F8
:100B140041706572747572616E646F20636F63688F
:100B24006572612E2E2E00436F63686572612063C7
:100B34006572726164610043657272616E646F20F4
:100B4400636F63686572612E2E2E00506F72746F2E
:100B54006E206170657274757261646F00417065B6
:100B640072747572616E646F20706F72746F6E2E22
:100B74002E2E00506F72746F6E2063657272616402
:100B84006F0043657272616E646F20706F72746F70
:100B94006E2E2E2E00456E63656E6469656E646FFD
:100BA4002073697374656D6120646520726965677B
:100BB4006F2E2E2E0053697374656D612064652059
:100BC400726965676F20656E63656E6469646F0042
:100BD40041706167616E646F2073697374656D61E0
:100BE40020646520726965676F2E2E2E0053697329
:100BF40074656D6120646520726965676F2061703A
:100C0400616761646F00436F6D616E646F206E6F26
:0C0C1400207265636F6E6F6369646F008F
:00000001FF
